{
  "contractName": "MedicalRecord",
  "abi": [
    {
      "inputs": [],
      "stateMutability": "nonpayable",
      "type": "constructor"
    },
    {
      "anonymous": false,
      "inputs": [
        {
          "indexed": false,
          "internalType": "string",
          "name": "patientId",
          "type": "string"
        },
        {
          "indexed": false,
          "internalType": "string",
          "name": "reportHash",
          "type": "string"
        }
      ],
      "name": "RecordInvalidated",
      "type": "event"
    },
    {
      "anonymous": false,
      "inputs": [
        {
          "indexed": false,
          "internalType": "string",
          "name": "patientId",
          "type": "string"
        },
        {
          "indexed": false,
          "internalType": "string",
          "name": "reportHash",
          "type": "string"
        },
        {
          "indexed": false,
          "internalType": "uint256",
          "name": "timestamp",
          "type": "uint256"
        }
      ],
      "name": "RecordStored",
      "type": "event"
    },
    {
      "anonymous": false,
      "inputs": [
        {
          "indexed": false,
          "internalType": "string",
          "name": "patientId",
          "type": "string"
        },
        {
          "indexed": false,
          "internalType": "string",
          "name": "reportHash",
          "type": "string"
        },
        {
          "indexed": false,
          "internalType": "uint256",
          "name": "timestamp",
          "type": "uint256"
        }
      ],
      "name": "RecordUpdated",
      "type": "event"
    },
    {
      "inputs": [
        {
          "internalType": "string",
          "name": "_patientId",
          "type": "string"
        },
        {
          "internalType": "string",
          "name": "_reportHash",
          "type": "string"
        },
        {
          "internalType": "string",
          "name": "_reportData",
          "type": "string"
        }
      ],
      "name": "storeRecord",
      "outputs": [],
      "stateMutability": "nonpayable",
      "type": "function"
    },
    {
      "inputs": [
        {
          "internalType": "string",
          "name": "_patientId",
          "type": "string"
        },
        {
          "internalType": "string",
          "name": "_reportHash",
          "type": "string"
        },
        {
          "internalType": "string",
          "name": "_newReportData",
          "type": "string"
        }
      ],
      "name": "updateRecord",
      "outputs": [],
      "stateMutability": "nonpayable",
      "type": "function"
    },
    {
      "inputs": [
        {
          "internalType": "string",
          "name": "_patientId",
          "type": "string"
        },
        {
          "internalType": "string",
          "name": "_reportHash",
          "type": "string"
        }
      ],
      "name": "invalidateRecord",
      "outputs": [],
      "stateMutability": "nonpayable",
      "type": "function"
    },
    {
      "inputs": [
        {
          "internalType": "string",
          "name": "_patientId",
          "type": "string"
        },
        {
          "internalType": "string",
          "name": "_reportHash",
          "type": "string"
        }
      ],
      "name": "getRecord",
      "outputs": [
        {
          "internalType": "string",
          "name": "patientId",
          "type": "string"
        },
        {
          "internalType": "string",
          "name": "reportHash",
          "type": "string"
        },
        {
          "internalType": "string",
          "name": "reportData",
          "type": "string"
        },
        {
          "internalType": "uint256",
          "name": "timestamp",
          "type": "uint256"
        },
        {
          "internalType": "bool",
          "name": "isValid",
          "type": "bool"
        }
      ],
      "stateMutability": "view",
      "type": "function",
      "constant": true
    },
    {
      "inputs": [
        {
          "internalType": "string",
          "name": "_patientId",
          "type": "string"
        },
        {
          "internalType": "string",
          "name": "_reportHash",
          "type": "string"
        }
      ],
      "name": "isRecordValid",
      "outputs": [
        {
          "internalType": "bool",
          "name": "",
          "type": "bool"
        }
      ],
      "stateMutability": "view",
      "type": "function",
      "constant": true
    }
  ],
  "bytecode": "0x608060405234801561001057600080fd5b5033600160006101000a81548173ffffffffffffffffffffffffffffffffffffffff021916908373ffffffffffffffffffffffffffffffffffffffff16021790555061139f806100616000396000f3fe608060405234801561001057600080fd5b50600436106100575760003560e01c80634c7314521461005c5780638a53ddb91461008c578063bf61da3f146100c0578063f30562b6146100dc578063fe9babd3146100f8575b600080fd5b61007660048036038101906100719190610ad9565b610114565b6040516100839190610b6c565b60405180910390f35b6100a660048036038101906100a19190610ad9565b610168565b6040516100b7959493929190610c1f565b60405180910390f35b6100da60048036038101906100d59190610ad9565b6103c1565b005b6100f660048036038101906100f19190610c87565b61056d565b005b610112600480360381019061010d9190610c87565b610754565b005b600080836040516101259190610d6a565b9081526020016040518091039020826040516101419190610d6a565b908152602001604051809103902060040160009054906101000a900460ff16905092915050565b6060806060600080600080886040516101819190610d6a565b90815260200160405180910390208760405161019d9190610d6a565b90815260200160405180910390206040518060a00160405290816000820180546101c690610db0565b80601f01602080910402602001604051908101604052809291908181526020018280546101f290610db0565b801561023f5780601f106102145761010080835404028352916020019161023f565b820191906000526020600020905b81548152906001019060200180831161022257829003601f168201915b5050505050815260200160018201805461025890610db0565b80601f016020809104026020016040519081016040528092919081815260200182805461028490610db0565b80156102d15780601f106102a6576101008083540402835291602001916102d1565b820191906000526020600020905b8154815290600101906020018083116102b457829003601f168201915b505050505081526020016002820180546102ea90610db0565b80601f016020809104026020016040519081016040528092919081815260200182805461031690610db0565b80156103635780601f1061033857610100808354040283529160200191610363565b820191906000526020600020905b81548152906001019060200180831161034657829003601f168201915b50505050508152602001600382015481526020016004820160009054906101000a900460ff16151515158152505090508060000151816020015182604001518360600151846080015195509550955095509550509295509295909350565b600160009054906101000a900473ffffffffffffffffffffffffffffffffffffffff1673ffffffffffffffffffffffffffffffffffffffff163373ffffffffffffffffffffffffffffffffffffffff1614610451576040517f08c379a000000000000000000000000000000000000000000000000000000000815260040161044890610e53565b60405180910390fd5b6000826040516104619190610d6a565b90815260200160405180910390208160405161047d9190610d6a565b908152602001604051809103902060040160009054906101000a900460ff166104db576040517f08c379a00000000000000000000000000000000000000000000000000000000081526004016104d290610ee5565b60405180910390fd5b600080836040516104ec9190610d6a565b9081526020016040518091039020826040516105089190610d6a565b908152602001604051809103902060040160006101000a81548160ff0219169083151502179055507f2ee77b9cb2834083224bcac814d54d9fc10312cab4fddf81a42dc3668581177c8282604051610561929190610f05565b60405180910390a15050565b600160009054906101000a900473ffffffffffffffffffffffffffffffffffffffff1673ffffffffffffffffffffffffffffffffffffffff163373ffffffffffffffffffffffffffffffffffffffff16146105fd576040517f08c379a00000000000000000000000000000000000000000000000000000000081526004016105f490610e53565b60405180910390fd5b60008360405161060d9190610d6a565b9081526020016040518091039020826040516106299190610d6a565b908152602001604051809103902060040160009054906101000a900460ff16610687576040517f08c379a000000000000000000000000000000000000000000000000000000000815260040161067e90610fae565b60405180910390fd5b806000846040516106989190610d6a565b9081526020016040518091039020836040516106b49190610d6a565b908152602001604051809103902060020190816106d1919061117a565b50426000846040516106e39190610d6a565b9081526020016040518091039020836040516106ff9190610d6a565b9081526020016040518091039020600301819055507fd1c2dd56060f94d2de256a4c3ebcaae59dadc65acdb9648890867c583509c2178383426040516107479392919061124c565b60405180910390a1505050565b600160009054906101000a900473ffffffffffffffffffffffffffffffffffffffff1673ffffffffffffffffffffffffffffffffffffffff163373ffffffffffffffffffffffffffffffffffffffff16146107e4576040517f08c379a00000000000000000000000000000000000000000000000000000000081526004016107db90610e53565b60405180910390fd5b6000835111610828576040517f08c379a000000000000000000000000000000000000000000000000000000000815260040161081f906112dd565b60405180910390fd5b600082511161086c576040517f08c379a000000000000000000000000000000000000000000000000000000000815260040161086390611349565b60405180910390fd5b6040518060a00160405280848152602001838152602001828152602001428152602001600115158152506000846040516108a69190610d6a565b9081526020016040518091039020836040516108c29190610d6a565b908152602001604051809103902060008201518160000190816108e5919061117a565b5060208201518160010190816108fb919061117a565b506040820151816002019081610911919061117a565b506060820151816003015560808201518160040160006101000a81548160ff0219169083151502179055509050507f9f7f225cca3906d421320860b5afbc9f44915713bf22cfa5a265d01e195b61a18383426040516109729392919061124c565b60405180910390a1505050565b6000604051905090565b600080fd5b600080fd5b600080fd5b600080fd5b6000601f19601f8301169050919050565b7f4e487b7100000000000000000000000000000000000000000000000000000000600052604160045260246000fd5b6109e68261099d565b810181811067ffffffffffffffff82111715610a0557610a046109ae565b5b80604052505050565b6000610a1861097f565b9050610a2482826109dd565b919050565b600067ffffffffffffffff821115610a4457610a436109ae565b5b610a4d8261099d565b9050602081019050919050565b82818337600083830152505050565b6000610a7c610a7784610a29565b610a0e565b905082815260208101848484011115610a9857610a97610998565b5b610aa3848285610a5a565b509392505050565b600082601f830112610ac057610abf610993565b5b8135610ad0848260208601610a69565b91505092915050565b60008060408385031215610af057610aef610989565b5b600083013567ffffffffffffffff811115610b0e57610b0d61098e565b5b610b1a85828601610aab565b925050602083013567ffffffffffffffff811115610b3b57610b3a61098e565b5b610b4785828601610aab565b9150509250929050565b60008115159050919050565b610b6681610b51565b82525050565b6000602082019050610b816000830184610b5d565b92915050565b600081519050919050565b600082825260208201905092915050565b60005b83811015610bc1578082015181840152602081019050610ba6565b60008484015250505050565b6000610bd882610b87565b610be28185610b92565b9350610bf2818560208601610ba3565b610bfb8161099d565b840191505092915050565b6000819050919050565b610c1981610c06565b82525050565b600060a0820190508181036000830152610c398188610bcd565b90508181036020830152610c4d8187610bcd565b90508181036040830152610c618186610bcd565b9050610c706060830185610c10565b610c7d6080830184610b5d565b9695505050505050565b600080600060608486031215610ca057610c9f610989565b5b600084013567ffffffffffffffff811115610cbe57610cbd61098e565b5b610cca86828701610aab565b935050602084013567ffffffffffffffff811115610ceb57610cea61098e565b5b610cf786828701610aab565b925050604084013567ffffffffffffffff811115610d1857610d1761098e565b5b610d2486828701610aab565b9150509250925092565b600081905092915050565b6000610d4482610b87565b610d4e8185610d2e565b9350610d5e818560208601610ba3565b80840191505092915050565b6000610d768284610d39565b915081905092915050565b7f4e487b7100000000000000000000000000000000000000000000000000000000600052602260045260246000fd5b60006002820490506001821680610dc857607f821691505b602082108103610ddb57610dda610d81565b5b50919050565b7f4f6e6c79206f776e65722063616e20706572666f726d2074686973206163746960008201527f6f6e000000000000000000000000000000000000000000000000000000000000602082015250565b6000610e3d602283610b92565b9150610e4882610de1565b604082019050919050565b60006020820190508181036000830152610e6c81610e30565b9050919050565b7f5265636f726420646f6573206e6f74206578697374206f7220697320616c726560008201527f61647920696e76616c6964000000000000000000000000000000000000000000602082015250565b6000610ecf602b83610b92565b9150610eda82610e73565b604082019050919050565b60006020820190508181036000830152610efe81610ec2565b9050919050565b60006040820190508181036000830152610f1f8185610bcd565b90508181036020830152610f338184610bcd565b90509392505050565b7f5265636f726420646f6573206e6f74206578697374206f7220697320696e766160008201527f6c69640000000000000000000000000000000000000000000000000000000000602082015250565b6000610f98602383610b92565b9150610fa382610f3c565b604082019050919050565b60006020820190508181036000830152610fc781610f8b565b9050919050565b60008190508160005260206000209050919050565b60006020601f8301049050919050565b600082821b905092915050565b6000600883026110307fffffffffffffffffffffffffffffffffffffffffffffffffffffffffffffffff82610ff3565b61103a8683610ff3565b95508019841693508086168417925050509392505050565b6000819050919050565b600061107761107261106d84610c06565b611052565b610c06565b9050919050565b6000819050919050565b6110918361105c565b6110a561109d8261107e565b848454611000565b825550505050565b600090565b6110ba6110ad565b6110c5818484611088565b505050565b5b818110156110e9576110de6000826110b2565b6001810190506110cb565b5050565b601f82111561112e576110ff81610fce565b61110884610fe3565b81016020851015611117578190505b61112b61112385610fe3565b8301826110ca565b50505b505050565b600082821c905092915050565b600061115160001984600802611133565b1980831691505092915050565b600061116a8383611140565b9150826002028217905092915050565b61118382610b87565b67ffffffffffffffff81111561119c5761119b6109ae565b5b6111a68254610db0565b6111b18282856110ed565b600060209050601f8311600181146111e457600084156111d2578287015190505b6111dc858261115e565b865550611244565b601f1984166111f286610fce565b60005b8281101561121a578489015182556001820191506020850194506020810190506111f5565b868310156112375784890151611233601f891682611140565b8355505b6001600288020188555050505b505050505050565b600060608201905081810360008301526112668186610bcd565b9050818103602083015261127a8185610bcd565b90506112896040830184610c10565b949350505050565b7f50617469656e742049442063616e6e6f7420626520656d707479000000000000600082015250565b60006112c7601a83610b92565b91506112d282611291565b602082019050919050565b600060208201905081810360008301526112f6816112ba565b9050919050565b7f5265706f727420686173682063616e6e6f7420626520656d7074790000000000600082015250565b6000611333601b83610b92565b915061133e826112fd565b602082019050919050565b6000602082019050818103600083015261136281611326565b905091905056fea2646970667358221220fc620986fed9fb6233b56a54e0ad8b026dd7ab661a8ce7ca22cb7f6042393f8a64736f6c63430008130033",
  "immutableReferences": {},
  "source": "// SPDX-License-Identifier: MIT\npragma solidity ^0.8.19;\n\ncontract MedicalRecord {\n    struct Record {\n        string patientId;\n        string reportHash;\n        string reportData;\n        uint256 timestamp;\n        bool isValid;\n    }\n    \n    mapping(string => mapping(string => Record)) private records;\n    address private owner;\n    \n    event RecordStored(string patientId, string reportHash, uint256 timestamp);\n    event RecordUpdated(string patientId, string reportHash, uint256 timestamp);\n    event RecordInvalidated(string patientId, string reportHash);\n    \n    constructor() {\n        owner = msg.sender;\n    }\n    \n    modifier onlyOwner() {\n        require(msg.sender == owner, \"Only owner can perform this action\");\n        _;\n    }\n    \n    function storeRecord(\n        string memory _patientId,\n        string memory _reportHash,\n        string memory _reportData\n    ) public onlyOwner {\n        require(bytes(_patientId).length > 0, \"Patient ID cannot be empty\");\n        require(bytes(_reportHash).length > 0, \"Report hash cannot be empty\");\n        \n        records[_patientId][_reportHash] = Record({\n            patientId: _patientId,\n            reportHash: _reportHash,\n            reportData: _reportData,\n            timestamp: block.timestamp,\n            isValid: true\n        });\n        \n        emit RecordStored(_patientId, _reportHash, block.timestamp);\n    }\n    \n    function updateRecord(\n        string memory _patientId,\n        string memory _reportHash,\n        string memory _newReportData\n    ) public onlyOwner {\n        require(records[_patientId][_reportHash].isValid, \"Record does not exist or is invalid\");\n        \n        records[_patientId][_reportHash].reportData = _newReportData;\n        records[_patientId][_reportHash].timestamp = block.timestamp;\n        \n        emit RecordUpdated(_patientId, _reportHash, block.timestamp);\n    }\n    \n    function invalidateRecord(\n        string memory _patientId,\n        string memory _reportHash\n    ) public onlyOwner {\n        require(records[_patientId][_reportHash].isValid, \"Record does not exist or is already invalid\");\n        \n        records[_patientId][_reportHash].isValid = false;\n        \n        emit RecordInvalidated(_patientId, _reportHash);\n    }\n    \n    function getRecord(\n        string memory _patientId,\n        string memory _reportHash\n    ) public view returns (\n        string memory patientId,\n        string memory reportHash,\n        string memory reportData,\n        uint256 timestamp,\n        bool isValid\n    ) {\n        Record memory record = records[_patientId][_reportHash];\n        return (\n            record.patientId,\n            record.reportHash,\n            record.reportData,\n            record.timestamp,\n            record.isValid\n        );\n    }\n    \n    function isRecordValid(\n        string memory _patientId,\n        string memory _reportHash\n    ) public view returns (bool) {\n        return records[_patientId][_reportHash].isValid;\n    }\n} ",
  "sourcePath": "D:\\E-Swasthya\\contracts\\MedicalRecord.sol",
  "compiler": {
    "name": "solc",
    "version": "0.8.19+commit.7dd6d404.Emscripten.clang"
  },
  "schemaVersion": "3.4.16",
  "updatedAt": "2025-03-17T21:09:03.650Z",
  "networkType": "ethereum",
  "devdoc": {
    "kind": "dev",
    "methods": {},
    "version": 1
  },
  "userdoc": {
    "kind": "user",
    "methods": {},
    "version": 1
  }
}